:020000040801F1
:10200000C00A0020E9B10108E5B10108E5B1010805
:10201000056B0108E5B10108E5B10108E5B101086A
:10202000E5B10108E5B10108E5B10108E5B1010834
:10203000E5B1010820110408D9BB0108E5B1010888
:10204000E5B10108E5B10108E5B10108E5B1010814
:10205000E5B10108E5B10108E5B10108E5B1010804
:10206000E5B10108E5B10108E5B10108E5B10108F4
:10207000E5B10108E5B10108E5B10108E15E01083B
:10208000E5B10108E5B10108E5B10108E5B10108D4
:10209000E5B10108E5B10108E5B10108E5B10108C4
:1020A000E5B10108E5B101081D420308E5B10108E9
:1020B000E5B10108E5B10108314103080D4103080C
:1020C000E5B10108E5B101082D210308E5B10108DA
:1020D0006D2B030805FD030801FD03085D230308BC
:1020E00011FD030809FD0308452B03080DFD030836
:1020F000AD2B03087D0503081D2C030841070308C9
:10210000E5B10108E5B10108E5B10108E5B1010853
:10211000E5B10108E5B10108E5B10108E5B1010843
:10212000E5B10108E5B10108E5B10108E5B1010833
:10213000E5B10108E5B10108E5B10108E5B1010823
:10214000E5B10108E5B10108E5B1010800000000B2
:10215000013800D0FCE770472DE9F04F2DED028BE0
:10216000934608241E460246A9B0DDF8D0A0DDF84B
:10217000D490CDE90601414021FA04F34B40980781
:1021800004F1080418BF9B00202C1A44F4D1BC4B66
:10219000A3FB0213DB0803EBC313D21AB94B02F5FE
:1021A00006271B7807F55067002B00F0B780B64C68
:1021B0008123049323464FF000083C46CDF80CB031
:1021C0000593A4F50625059AA5F550635B0952F819
:1021D000232004F01F00C240D20718D4AB4A52F8A3
:1021E0002330C340DB0700F18780DDF80CB02746C1
:1021F000BBF1000F6FD0B8F1000F18BF47460020A9
:10220000369B1F6029B0BDEC028BBDE8F08FBAF1A0
:10221000000F02D00023CAF80030B9F1000F02D03D
:102220000023C9F800301027DFF87CB20023DBF868
:10223000000032462146009719F0EAFE03460028C6
:102240004CD1BAF1000F00F0F2801023CAF8003030
:1022500003F1BC43326803F5BA1303F5E8539A421D
:1022600040F0EA80B9F1000F11D04B462146DBF86F
:10227000000018AA19F020FF0346002840F0E5806E
:10228000D9F80030DAF800209B1AC9F80030D6E9F6
:102290000223DDE90610834208BF8A4200F0DD8098
:1022A000774BA5F6FF45A3FB0523DB0803EBC31320
:1022B000ED1A05F5062404F55064049B013B0493D4
:1022C0007FF47FAFDDF80CB0BBF1000F03D04746C1
:1022D000B8F1000F93D16FF08B0093E76C4A9042F6
:1022E00000F0AA801232904200F0A680694A934220
:1022F000CDD06FF0910085E7614BA5F6FF42A3FBBF
:102300000213DB0803EBC313D21AB8F1000F08BFA6
:10231000A04602F5062404F55064CEE708F07AFEE4
:1023200004460028E5D19FED548B0146402208A8C1
:102330002DF0A3FD2146402218A82DF09EFDCDE9E9
:10234000037B554DDFF860814F4C0596CDF8D0A04A
:102350002F4607F10F06D8F8000010223B4608A9C7
:10236000009610352CF05FFEF8B108AB9E464FF09A
:10237000010BDFF818C103EB800A5EF8042BA2F50D
:102380000623A3F550635B0954F8231002F01F02E3
:102390000BFA02F2114344F823105CF82310D645DF
:1023A00021EA02014CF82310E7D100963B461022A7
:1023B000D8F8000018A92CF03FFE60B318AB1A46FD
:1023C00003EB8000D4E9001303EB010EA16823693D
:1023D0008E44E16801268E440EEB0301A646DFF829
:1023E000ACC052F8043BA3F50627A7F550677F0958
:1023F0005CF8274003F01F0306FA03F323434CF86D
:10240000273029B98CED008B8CED028BCCF81010A5
:102410009042E6D17446214B9D4299D10123DDE9DA
:10242000037B184A059EDDF8D0A01370C0E61C4B54
:1024300032689A423FF42BAF2146DBF8000019F0D6
:102440007FFE00283FF423AF45E7114A9042F3D0C6
:10245000144A90427FF44AAFEEE7DDF80CB027460D
:10246000BBF1000F3FF4CBAE7368012B7FF4C7AE16
:102470006FF08400C6E600BF00000000000000000E
:10248000813FE00F12390020881D002060190020D4
:10249000FFDF00F0FEDF00F0006D080000710800B3
:1024A000105D175E11E000F0F80A00200000000047
:1024B000C0290AD0F0B5B1F5807F04469FB00FD097
:1024C000802904D029201FB0F0BD0F207047249828
:1024D000002848D024984FF486650A90012006E031
:1024E000249800284DD00A9040F2344501200B90EA
:1024F0000195212010250C950D9025980E900AA885
:10250000102501269FED247B4FF0210EDFF898C0A7
:102510000F9012A810951196129213961495CDF85B
:1025200054E0CDF808C003908DED047B9FED1C7B3B
:1025300001AF069307908DED087B16973BB306AA73
:102540001792042740F611021126CB0816AD0EA9EA
:102550001AA8189719961A941B951C931D9205F0AA
:10256000D5FA1FB0F0BD0A904FF4826501200B90A0
:102570000195212010250C950D9025980E90012095
:10258000BEE7249840F214450A900120EFE702AA22
:10259000D6E700BFAFF30080100000101128000044
:1025A0001000000011280000EC0E040800000000DC
:1025B000002370B5404C05468AB0E36318B100882B
:1025C00023600FF057FB3D482CF0E7FE3C4E3D4B9F
:1025D000304633603C4B736028F0F5F900213046FB
:1025E00019F092FF32A3D3E90023A062C4E90623C5
:1025F00028F0F4F9D4E9062319431043C4E906018D
:10260000CDE900014FF0FF334FF0FF32A06A2CF00C
:102610003FFF02224FF0FF31A06A2CF03EFF012065
:102620000FF0AAF84FF4007300222849A06A2CF09A
:1026300087FFB0F5007F38D100239422CDE907331E
:1026400009933C23CDE9033205939623A06A03A99D
:1026500006931AF077F835B3287C0FF0C3FC0546D3
:10266000F0B9A06A2DF04DF80FF06AFC0FF066F893
:1026700020B14FF4807000210CF07CF80FF06EF860
:1026800020B14FF4006000210CF074F828F069FAD2
:10269000012019F08DFF0E4A0E49A06A28F091F929
:1026A00028460AB070BDFF20D7E70725F8E700BF2E
:1026B0000DD5015520000000E8190020690345EC04
:1026C0000C2A0020FD1502081C2A00200C280020DE
:1026D0006BA90308ABA9030810B5374C2DED028B8D
:1026E000D4ED017AD4ED026A94ED037A0328C4EDA7
:1026F000007AC4ED016A84ED027A84ED030A82B0A7
:1027000004D8002002B0BDEC028B10BDDFED2B8A97
:1027100077EEA87A77EEA67A77EE877AB5EE006A3A
:1027200030EE278A28EE068A18EE100A24F01EFAE8
:102730001FA3D3E9002324F0E3FCDFED217A234635
:10274000B0EE680A002808FE278A04F11002F3ECB4
:10275000017A77EEC87A67EEA77A9A4230EE270AB6
:10276000F5D1F5EE007A20EE270AB5EE400AF1EE3B
:1027700010FA17D4B1EEC07AC7EE087AB0EE007A3C
:10278000F4EEC77AF1EE10FAC8BFC820BADC9FEDAC
:102790000D7A67EE877AFCEEE77ACDED017A9DF847
:1027A0000400AFE724F072FEB0EE407AE4E700BF29
:1027B0007B14AE47E17A843FF4340020000000002F
:1027C0000AD7233C0000C84238B52DED048BC9B3AD
:1027D0000446DFED2B7A034600EB8105B3EC017A6A
:1027E0009D4277EE877AF9D107EE101AF8EEC78A84
:1027F00087EEA88A18EE100A24F0B8F91EA3D3E9D0
:10280000002324F07DFCDFED1F7A9FED1D7A002868
:1028100008FE278AF4EC017A77EEC87A67EEA77A89
:10282000A54237EE277AF5D187EE289AB5EE409A81
:10283000F1EE10FA19D4B1EEC90A80EE080ABDEC27
:10284000048B38BDDFED0E7A87EEA79A19EE100AD9
:1028500024F08CF908A3D3E9002324F051FC9FED68
:10286000098A002809FE088AE0E7B0EE490A24F048
:102870000DFEE2E7AFF300807B14AE47E17A843FC0
:10288000000000000AD7233C2DE9F84F04242DED69
:10289000068B0646DFED648AB3EE0E9A0D4610EE07
:1028A000108A174603680B6043684B6083688B602F
:1028B000C368CB6006EB840393ED008AB4EEE88A2C
:1028C000F1EE10FA4FEA840917DDB4EEC98AF1EE91
:1028D00010FA12D553ED019AF4EEE89AF1EE10FADF
:1028E0000BDDF4EEC99AF1EE10FA06D513ED02AA4B
:1028F000B4EEE8AAF1EE10FA0ADCA94489ED008AE8
:102900000134E4B2BC42D5D3BDEC068BBDE8F88FF0
:10291000B4EEC9AAF1EE10FAEFD553ED03AAF4EE26
:10292000E8AAF1EE10FAE8DDF4EEC9AAF1EE10FA29
:10293000E3D553ED047AF4EEE87AF1EE10FADCDD3B
:10294000F4EEC97AF1EE10FAD7D57AEEE77A17EEFF
:10295000900A24F00BF92EA3D3E9002324F05EF9AA
:102960007AEE6A7A824617EE900A8B4624F0FEF8D9
:1029700029A3D3E9002324F051F902460B4650461F
:10298000594623F095FF79EECA7A824617EE900AEF
:102990008B4624F0EBF822A3D3E9002324F03EF980
:1029A00002460B465046594623F082FF78EE697A7C
:1029B000824617EE900A8B4624F0D8F818A3D3E984
:1029C000002324F02BF902460B465046594623F0CB
:1029D0006FFF824640468B4624F0C8F802460B46FD
:1029E0005046594624F01AF9824618EE100A8B46D2
:1029F00024F0BCF802460B465046594623F058FFD7
:102A000024F0A6FBA944C9F8000079E7AFF30080E1
:102A10009A9999999999B93F9A9999999999C93F88
:102A2000CDCCCCCCCCCCD43FCDCC0C4000000000E5
:102A30002DE9F84F27292DED068B0C4682469A4D3D
:102A400000F2AC8007EE101AD5ED017AF8EEC78AD5
:102A5000DFED969A67EEE87A9FED959A87EEA90AE0
:102A600030EE090AD5ED00AA24F076FCD5ED037A04
:102A700067EEE87AB0EE408A87EEA90A30EE090ADE
:102A800095ED02AA24F068FC2046F0EE408A24F07E
:102A90005BF80022874B24F0C1F80022864B24F01B
:102AA000E7F941EC100B00F053FBDFED846A9FED7A
:102AB000847A28EE268A68EE878AF7EE007A37EE67
:102AC000C88A77EEE87A28EE2A8A67EE8A7A78EE64
:102AD000277A17EE900A59EC108B24F047F86AA376
:102AE000D3E9002306460F464046494624F096F8AF
:102AF00002460B463046394623F0DAFE24F028FB26
:102B000008EE100A6F4E704896ED007A43686F4FDA
:102B100003608368DFF8DC814360C36888ED007A76
:102B200083603B8880ED037AA342C0F08C81684AC1
:102B30006849B7EE006AD1ED007A6749DFED676A50
:102B400091ED005A664977EEC57AD1ED005A67EEED
:102B5000A57A77EE867A67EE877AF4EEE67AF1EE7A
:102B600010FA4CBFB0EE667AB0EE677A5D4948BFA6
:102B7000F0EE477A9C4281ED007A00F2BD80BDEC18
:102B8000068B002358483168C0ED007A5748116021
:102B9000C0ED007ACAF80030BDE8F88F07EE901A51
:102BA0002868B8EEE78A23F0E1FFD5ED017ADFED82
:102BB0003F8A67EEC87AC7EEA87A804617EE900A79
:102BC000894623F0D3FF32A3D3E9002323F070FE1C
:102BD00024F0BEFA00EE100A24F0BEFBA86810EE46
:102BE00010BA23F0C3FFFBEE097A28EE278AC8EE5D
:102BF000287A064617EE900A0F4623F0B7FF24A363
:102C0000D3E9002323F054FE24F0A2FA00EE100AC8
:102C100024F0A2FB584610EE10BA23F0A7FF1EA323
:102C2000D3E9002323F0FAFF02460B460020304987
:102C300023F03CFE42464B4623F0F0FF24F088FA96
:102C400023F094FF80465846894623F08FFF14A353
:102C5000D3E9002323F0E2FF02460B46002024497B
:102C600023F024FE32463B4623F0D8FF02460B46B3
:102C70004046494623F01CFE24F06AFA08EE100A8A
:102C800040E700BFAFF300809A9999999999B93FAD
:102C90009A9999999999C93FCDCCCCCCCCCCEC3FA1
:102CA0009A9999999999F53F983700200000F04337
:102CB000CDCC4C3E00000C4000007E40CDCC8C3F83
:102CC0006666A63F8837002030370020EA380020AB
:102CD0006837002094370020BC3700200AD7233CF7
:102CE000C037002084370020703700206C37002068
:102CF0000000F03F24360020C64BC749D3ED006AE0
:102D000091ED007AF4EEC76AF1EE10FA78DCB4EED9
:102D1000E77AF1EE10FAC149C1ED007A08D5C04951
:102D200091ED006AF4EEC67AF1EE10FA00F10C8132
:102D3000F0EE675ABB4C9FEDBC7AF4EEC77AF1EE29
:102D400010FABA4948BFF0EE477AD1ED006AB849A7
:102D50009FEDB57AC1ED007A77EEE67AB54FF4EEE5
:102D6000C77AD7ED006AF1EE10FAF5EE406A54BF6B
:102D7000B0EE677AF0EE477AF1EE10FAAE4880EDE9
:102D8000007AAE48C0ED007A00F0928095ED047AAA
:102D900028EE077A27EE267AA948DFF8C4C207880A
:102DA0008CED007A012F00F0EC80B5EE407AF1EE68
:102DB00010FA00F08D80C7EE876AA24DA24F2878E6
:102DC000C7ED006A002800F092800138C0B2287078
:102DD0009E4DDFF8A8C2D5ED007A9CED007A76EE24
:102DE000E76A66EE876A76EEA76AC7ED006ACAED03
:102DF000006A10B9042796480770C5ED006A6CE0B8
:102E0000874991ED006AF4EEC66AF1EE10FA7FF59B
:102E10007EAFB4EEE76AF1EE10FA7FF778AFB4EE6A
:102E2000E77AF1EE10FA7FF572AF8A4977EEE65A4B
:102E300091ED005AF4EEC55AF1EE10FA40F37B81A1
:102E400076EE857A63E70421FFF7BEFC824A96EDB1
:102E5000007AD2ED007A77EE677ADFED806AF5EEE0
:102E6000C07AF1EE10FAB4EEE60AD8BFF1EE677A56
:102E7000F1EE10FA06DDF0EE006AF4EEE67AF1EE1D
:102E800010FA0FDC644BD3ED007AB4EEE77AF1EE82
:102E900010FA07D9624BD3ED007AB4EEE77AF1EE7F
:102EA00010FA01DB9FED607A88ED007A3B883FE6FF
:102EB0006348B0F800C0BCF1010F00F08B80684897
:102EC00090ED007AB5EE407AF1EE10FA7FF473AF30
:102ED00064485D4DCAF80000286008683168C3ED99
:102EE000005ABDEC068B20601160BDE8F88F5E488B
:102EF000564DD0ED017A90ED027A90ED035A95EDA2
:102F0000006ADFF84CC1594FC0ED007A80ED017ABC
:102F100080ED025A80ED036A9CF8000097ED003ABC
:102F2000D7ED012AD7ED023A97ED034A002800F0C9
:102F3000AB80F0EE667A01388CF80000CAED007ABA
:102F40005BE73649C1ED007A364CD4ED006AB4EE49
:102F5000E67AF1EE10FA59D5F4EEC66AF1EE10FAFF
:102F600054D54349B7EE007A91ED006A37EE467AC0
:102F7000F0EE675A27EE267A66EE277A77EE277A02
:102F8000D9E63C4FB7EE006A97ED005A3A4F36EE5D
:102F9000456AD7ED004A25EE274A26EE077A84EEE9
:102FA000245A66EE886A35EE077A87EE266A4FF075
:102FB000020885ED046ADFF8C8E0224F87F8008038
:102FC000BEF800700137AEF8007000258CED007A75
:102FD0000580EAE6D5ED046A274D68EE266A95ED90
:102FE000006A87EE867A4FF0040E87EE266ADFF8D5
:102FF00090C0174D87ED006A85F800E0BCF80050DE
:103000000135ACF80050DFF858C0DEE7F0EE675A43
:1030100091E600BF70370020140D0020803700209B
:10302000100D00206C3700200AD7233CB037002059
:103030007C37002058370020783700207437002074
:10304000E2380020F93900204437002040370020C2
:10305000FA390020B837002068370020CDCC4C3E2C
:1030600060370020CDCCCC3D48370020C837002049
:10307000B4370020AC3700205C370020C437002074
:10308000E4380020CDCC0C405FED024AF4EEE47A47
:10309000F1EE10FA4CD9B3EE0E2AF4EEC27AF1EE4C
:1030A00010FA45DAB4EEE47AF1EE10FA40D9B4EE53
:1030B000C27AF1EE10FA3BDAB4EEE45AF1EE10FA0D
:1030C00036D9B4EEC25AF1EE10FA31DAB4EEE46A4F
:1030D000F1EE10FA2CD9B4EEC26AF1EE10FAF0EE6D
:1030E000424A25DA1FED192AF4EEC26AF1EE10FA0F
:1030F0001ED9F4EEE46AF1EE10FA19DA75EE474AD9
:1031000037EE677A64EEA27A36EE455A47EE037AD6
:1031100045EE237A36EEC66AB0EE677A0B4806EEC5
:10312000047A90ED002AF0EE667A47EE027A05E71F
:10313000F0EE667A02E776EEE75AB4EEE55AF1EE83
:1031400010FA7FF5FEAE76EEC57AE0E5D8370020BE
:1031500038B555EC104B2DED028B00F045F82246AA
:103160002B4620462946B0EE408AF0EE608A24F0D5
:1031700087FE98B9002200232046294623F0DEFF6F
:1031800060B9002200232046294623F0AFFF60B13A
:1031900024F08CFE22239FED0C8B0360B0EE480AD6
:1031A000F0EE680ABDEC028B38BD24F07FFE2122D0
:1031B00003460748BDEC028B1A60BDE8384000F0BA
:1031C0000BB800BFAFF30080000000000000F0FF6C
:1031D000EC160408000000009FED010B704700BFD3
:1031E000000000000000F87F53EC102BB3F5801FA7
:1031F0002DE9F04F1C4687B058DA23F00041104605
:10320000114300F0F780002B1946C0F234810022F0
:10321000D94B23F003FD0C460B46D84902466FF00C
:1032200035008C4246DC2515D549C4F31304A5F2BC
:10323000FF3521440544D34801F48011484005EB93
:10324000115540EA0403104600221946CD4B23F0E5
:103250002DFBA31C82468B46C3F31303022B32DCE7
:103260000022002323F042FF002800F0CE80002D32
:1032700000F09281284623F067FC06460F46AAA379
:10328000D3E9002323F0CAFC04460D4630463946F4
:10329000A7A3D3E9002323F0C1FC02460B46204636
:1032A000294623F005FB41EC100B09E0B34900204F
:1032B0008C42B8DD1046194623F0FAFA41EC100BA7
:1032C00007B0BDE8F08F00224FF0804323F0F0FA02
:1032D00002460B4650465946DFF8B88223F0C8FD37
:1032E00006460F46284623F02FFC32463B46A044B4
:1032F000CDE9040130463946CDE9026723F08EFC62
:1033000002460B46CDE9002323F088FC06460F4613
:1033100089A3D3E9002323F081FC89A3D3E9002307
:1033200023F0C6FA32463B4623F078FC86A3D3E965
:10333000002323F0BDFA32463B4623F06FFC84A302
:10334000D3E9002323F0B4FADDE9002323F066FC7F
:1033500081A3D3E90023CDE900013046394623F0AB
:103360005DFC7FA3D3E9002323F0A2FA32463B465B
:1033700023F054FC7CA3D3E9002323F099FA3246CE
:103380003B4623F04BFC0B460246DDE9000123F0EF
:103390008FFA7D4B06460F461B1B43EA0803002BA2
:1033A0005BDD0022794B5046594623F037FC5246EC
:1033B0005B4623F033FC80468946002D64D14246AB
:1033C0004B463046394623F073FADDE9022323F0F9
:1033D00025FC02460B464046494623F067FA024662
:1033E0000B465046594623F061FA41EC100B07B0EA
:1033F000BDE8F08F002200230020654923F038FD4E
:1034000041EC100B07B0BDE8F08F59A3D3E90023BE
:103410005046594623F002FC02460B4600205B4909
:1034200023F044FA06460F4652465B46504659463C
:1034300023F0F4FB02460B463046394623F0EEFB00
:1034400006460F46002D56D102460B4650465946B9
:1034500023F02CFA41EC100B32E7002D40F09F8056
:1034600002460B465046594623F020FADDE9022376
:1034700023F0D4FBB3E723F019FA0022002323F052
:10348000F7FC41EC100B1BE727A3D3E90023DDE990
:10349000040123F0C3FB42464B4604460D4630462A
:1034A000394623F005FADDE9022323F0B7FB06468F
:1034B0000F461FA3D3E90023DDE9040123F0AEFB8F
:1034C00002460B463046394623F0F2F902460B46D7
:1034D0004046494623F0EAF952465B4623F0E6F9B6
:1034E00002460B462046294623F0E0F941EC100B3A
:1034F00007B0BDE8F08F284623F026FB80468946BA
:1035000009A3D3E9002323F089FB04460D46404676
:10351000494607A3D3E9002323F080FB02460B466C
:1035200030463946D6E700BF0000E0FE422EE63FB7
:10353000763C7935EF39EA3D44523EDF12F1C23F25
:10354000DE03CB966446C73F599322942449D23F69
:10355000935555555555E53F9FC678D0099AC33FB9
:10356000AF788E1DC571CC3F04FA97999999D93FD0
:10357000555555555555D53F00005043FFFFEF7F3A
:10358000645F09000000F03F51B806000000E03F12
:10359000000050C386EBF9FF9FED0D0B90E6DDE9CF
:1035A00004890DA3D3E900234046494623F036FBA6
:1035B00032463B4604460D465046594623F076F9BE
:1035C000DDE9022323F02AFB06460F469FE700BFF2
:1035D00000000000000000000000E0FE422EE63F78
:1035E0000348044B834202D0034B03B11847704792
:1035F000601900206019002000000000064B0749F8
:10360000C91A891048BF0131491003D0044B0BB1CE
:1036100001481847704700BF60190020601900205A
:103620000000000010B5064C237843B9FFF7D8FF1F
:10363000044B13B10448AFF300800123237010BD85
:10364000FC380020000000007C5E040808B5054B33
:103650001BB105490548AFF30080BDE80840FFF7FE
:10366000CDBF00BF00000000481C00207C5E0408A5
:10367000A3F5803A704700BF174B002B08BF134BD0
:103680009D46FFF7F5FF00218B460F461348144A6D
:10369000121A2CF0F2FB0E4B002B00D098470D4B6A
:1036A000002B00D098470020002104000D000D4899
:1036B000002802D00C48AFF300801FF08BFE2000E2
:1036C000290008F0C7FD1FF0B9FC00BF000008008A
:1036D0000000000000000000C00A00206019002067
:1036E0001C3A002000000000000000002DE9F84313
:1036F000D0E90256A5EB060991450446174607D9BD
:103700004068B51830442CF0C3FBE560BDE8F88391
:10371000884640684A4630443E44751B2CF0B8FB4E
:103720002A46606808EB09012CF0B2FBE560BDE8B1
:10373000F88300BF2DE9F8434FF00009064688469C
:103740001746D0E902253369541B9D4203F1FF312E
:1037500025BF03F1FF339B184B1B5B1BBC4228BFEB
:103760003C469C4228BF1C4670684146224628447D
:103770002CF08EFBB2682544AA4208BF00253F1BEF
:10378000A144A044F560DED14846BDE8F88300BFFF
:10379000F8B5144CA822002120462CF06EFB124BE9
:1037A000002203264FF480619C46104DDFF844E070
:1037B0000F4F2661A3F110006661A561C4F81CE0FB
:1037C0002162A2626262E26225666766A166226782
:1037D000E2666267ACEB030213F8011D8342A15459
:1037E000F8D1F8BDB81800207C0D0408600D04085D
:1037F000B8100020B81400202DE9F04FDFF8A4B075
:1038000006469BF800308946532B154683B001D0FD
:10381000FFF7BEFF06EB46040BEBC404E36E276F15
:103820004FEA460A9F421FD8DB1B9D422A4628BF0B
:103830001A4612B94FF0000812E090460AEB060350
:103840000BEBC303596E4846394417442CF020FB58
:10385000B8F1000FEED0B2440BEBCA0ACAF8707090
:10386000404603B0BDE8F08FA26E616EA2EB070880
:10387000A84528BFA84639444246484601932CF043
:1038800007FBA16E019B4744B942A5EB080214BF98
:10389000DB1B00279A4228BF1A46002AD8D0C14411
:1038A0009044CBE7B818002010B50B46EFF3118415
:1038B0004FF0200181F311881946FFF79DFF84F333
:1038C000118810BD38B5204B00EB400403EBC40E4B
:1038D000DEF82C40013000EB4000012C8C461546F0
:1038E00003EBC00005D0022C2AD0B4B1002420463E
:1038F00038BDDEF82830DEF82440A3429CBFDEF855
:1039000020105B18013B1C1B944228BF14466146E3
:103910002246FFF7EBFE204638BDDEF82830DEF801
:10392000242093429CBFDEF820105B18013B9A1ABA
:103930009542DCD82A466146FFF7D8FE2C46D6E7EA
:10394000BDE83840FFF7F6BEB8180020F8B50B4BBD
:1039500004461B780D46532B164601D0FFF718FF7F
:10396000EFF311874FF0200181F311883246294689
:103970002046FFF7A7FF87F31188F8BDB81800208D
:103980002DE9F0411B4D044695F800C08846BCF176
:10399000530F17461E4601D0FFF7FAFE022C26D819
:1039A000EFF311824FF0200181F3118854B92346BF
:1039B000234405EBC305069BEB6282F311880020CC
:1039C000BDE8F0814FF0000C601C00EB4000C0002F
:1039D00004EB440145F8008005EBC1012844476031
:1039E00063000E62C1F828C0C1F824C0E0E74FF0C0
:1039F000FF30E5E7B81800202DE9F041174D0446E7
:103A000095F800C08846BCF1530F17461E4601D0FA
:103A1000FFF7BEFE022C1ED8EFF311824FF02001FB
:103A200081F3118854B92346234405EBC305069B53
:103A30006B6782F311880020BDE8F081002104EB60
:103A4000440005EBC000C0F86080630047668666EE
:103A50000167C166E8E74FF0FF30EDE7B8180020D6
:103A600039B1044B0A4610B500211B68044698473B
:103A700010BD7047C00A002010B5044628B121B11E
:103A8000044B0A461B68002198472046BDE81040B9
:103A900001F02ABDC00A00202DE9F041154600F0D2
:103AA000FE42B2F1106F90B029D1044620F01F60A1
:103AB00020F4702018BBD1E909788C460DF11C0E5A
:103AC000CDE90E001E46BCE80F00AEE80F009CE8F2
:103AD0000700089B8EE807001A0A10D12046189CA0
:103AE00043460494179C3A460394169C019607A9F2
:103AF0000294009503F0D6FB10B0BDE8F0816FF0A2
:103B00008500F9E700232DE9F041044646680F4699
:103B10003046114682B01360D4F8088001F09CFB57
:103B2000054618B1284602B0BDE8F081304601F0E4
:103B300095FB05460028F5D1F6B27EBBB8F1000F23
:103B400032D1E36823F47F4323F0030363BB4FF6D2
:103B5000F87362889A422AD8238B012B24D83946DD
:103B600001A801F055FA05460028DBD10FCC3F68CB
:103B70003E460FC694E807003B7986E807000BB97C
:103B8000019BBB603B8B012123F0010338463B8343
:103B900001F0EAF9284602B0BDE8F0810146A068CC
:103BA00001F0D0F90028CCD16FF08605BAE76FF0AC
:103BB0008505B7E700F0FE43B3F1407F2CD1344BCD
:103BC0000340B3F1607F2AD0B3F1707F24D101F4B8
:103BD000E043B3F5005F1FD111F4E06FC1F3022C95
:103BE0001AD010F47C1F0AD1012101FA0CF1CBB2DA
:103BF0000329137031D9142B2FD800207047C0F33C
:103C00000543C0F3074010F03C0F137025D001228C
:103C100002FA0CF29A42EED26FF086007047B1F5CC
:103C2000885FF9D110F47C111AD0C0F30741C0F3BA
:103C3000054311F03C0F13700FD0164AC0B240F08C
:103C4000007090421DD000F17E4004380F28E3D868
:103C5000114A52F82020DDE711706FF0850070479F
:103C60000C4BC0B240F0007098420DD000F17E4085
:103C700004380F28F0D8094B1B5C032B1370E7D8CE
:103C8000EBE7102BB9D9C7E710231370B5E700BFD6
:103C90000000C07F03000002900D0408800D04089E
:103CA0008A4257D030B422F4FF73804C23F00103D2
:103CB000A3422BD004F5885422F0FF03A34225D061
:103CC0007B4D22F47F7424F00304AC421ED0794C67
:103CD000A3421BD001F0FE43B3F1A06F43D102F029
:103CE000FE43B3F1A06F32D182EA010333F47E13B5
:103CF0002DD111F4004007D0C1F30540C2F30542B5
:103D000090428CBF0020012030BC70476A4C21F0EB
:103D1000FF03A34213D0694CA34210D0A4F58854EA
:103D2000A3420CD021F4FF7424F00104B4F1062F57
:103D300005D0604DAB4202D05D4B9C42CAD111F020
:103D4000FF00E1D05E4B40F00070984204D030BCE0
:103D5000002070470120704782EA0100FF288CBFD5
:103D600000200120D0E7B3F1407F39D102F0FE43BB
:103D7000B3F1407FEBD182EA010333F47E13E6D145
:103D8000504C0C40B4F1607F41D0B4F1707FDED173
:103D900000F4E044B4F5005FD9D110F4E06FD6D060
:103DA00012F47C1337D0474BC2F305441340B3F1F0
:103DB000607F61D0B3F1707F6AD0002311F47C1F63
:103DC000C1F3054540D012F47C1F01D19D4266D05D
:103DD00011F4004098D0A5428CBF0020012093E749
:103DE000B3F1106FB3D121F01F6020F470200028D0
:103DF000ADD102F0FE43B3F1106F85D132481040CF
:103E000040F01060401AB0FA80F040097CE7B0F54D
:103E1000885F9CD1C4E72B4C1440B4F1607F18D06C
:103E2000B4F1707F01D01C46C8E700F4E044B4F55B
:103E3000005FF8D10124C0F302239C40000A012353
:103E400000F007008340B9E7181BB0FA80F0400982
:103E50005AE71E4CD0B240F00070A04221D000F1D1
:103E60007E4004380F28DED80346194C54F8204011
:103E7000184850F82330A1E71448D3B243F0007338
:103E8000834211D003F17E43043B0F2B95D8EFE71B
:103E900000F4E043B3F5005F8FD1000ACFE70120C3
:103EA00032E71024234689E7102387E70002000643
:103EB00000040006000900060003000600130006C7
:103EC000FF0000020000C07F0000FFF603000002B8
:103ED000900D0408900D04082DE9F84316460022C1
:103EE00088461D4601F0DEF80446B0B9D8F80070E7
:103EF000B7F8009009F4E043B3F5804FFB6808BFC2
:103F000026F0010636EA03030AD06FF0840400238A
:103F10003846C8F8003001F075F92046BDE8F8834E
:103F2000002DFAD0224A25F0FF03934220D0214AE7
:103F300093421DD0A2F58852934219D025F4FF7206
:103F400022F00102B2F1062F12D01B498B420FD092
:103F50001A4B9A420CD005F0FE43B3F1407F02D0D9
:103F6000B3F1A06F1FD12B040AD56FF08604CEE702
:103F700015F0FF0304D0124A43F000739342F4D0CB
:103F80002A4648463969FFF78BFE06460028C4D109
:103F90002A4648467969FFF783FE34460028B4D0A4
:103FA0002046BDE8F883064B9D42E9D1DDE700BF1E
:103FB00000030006001300060009000600040006C6
:103FC000FF0000022DE9F04300240E4693B099460D
:103FD0001D9B9046A3420CBF4FF400624FF48062D9
:103FE000334608A98DF81F401B9FFFF775FF044655
:103FF00078B1089D1C9B1F6027B13A4621211A9871
:104000002BF03BFF284601F0FDF8204613B0BDE839
:10401000F083089D09ACAC46CDE91000BCE80F0068
:104020000FC49CE8070084E807003046BDF8241060
:104030000DF11F02FFF7BEFD04460028DAD19DF8FE
:104040001F30BB4202D96FF08904D3E70A98D5E943
:104050000912000A1ED11C9C039304941A9C334637
:104060000294CDE9008909A803F08EFB10F1860FB8
:104070000446BED00028BCD11C9B18682FB11A9BE7
:104080003A1A212118442BF0F8FE089801F0BAF8EA
:104090000446BAE76FF08604ACE700BF2DE9F041B3
:1040A00000251F4603688CB004460295B3B9AF42A1
:1040B00016461346084614BF4FF480624FF4006260
:1040C00002A9FFF709FF0546F8B1236843B9029832
:1040D00001F098F828460CB0BDE8F0816FF0880533
:1040E000062B03D104F1080003F0BCFC0022A388D6
:1040F000029823F4FF7323F00103A380226001F0F0
:1041000081F828460CB0BDE8F081DDF8088003ADE9
:10411000C446CDE90A00BCE80F000FC59CE80700C3
:1041200085E807003046BDF80C10221DFFF742FD60
:1041300005460028C9D16379049967F300036371C8
:10414000D8E90923A7B1090A1ED103A9009604F1F1
:10415000080003F08BFB05460028B6D10623029821
:10416000236001F04FF8054628460CB0BDE8F08109
:10417000090A09D103A9009604F1080003F0B6FB6F
:1041800005460028A1D1E9E76FF086059DE700BF4D
:1041900041F2052398420DD9B0F5105F14D121F0FA
:1041A0004003802B21D0B1F5807F0CBF00206FF041
:1041B00086007047B0F5905F09D241F20103984242
:1041C0000CD0B0F5885F09D06FF0850070472923C7
:1041D000A0F5905080B2C340DB07F5D511F0070F72
:1041E0000CBF00206FF0860070470020704700BFB2
:1041F000F8B5466A7EB904460F46012011461546B9
:1042000001F062F9606248B139462A46A5622BF096
:104210003FFE3046F8BD6FF08A00F8BD6FF08C00AD
:10422000F8BD00BFF8B5089D00884AB11E4600F4ED
:10423000E043B3F5805F0F4606D0B3F5005F03D0CF
:104240006FF085042046F8BD296809B9D1002960BE
:10425000FFF79EFF04460028F4D10731B2EBD10FDF
:1042600010D1069B9A420AD8394630462BF010FEF0
:104270002B68079A0733DB0820461360F8BD6FF000
:104280008904DFE76FF08604DCE700BF38B5044639
:10429000406A10B1A16AFFF7EFFB94F82030043BAD
:1042A000012B0CD8E369002B0CBF00256FF096059D
:1042B0002C22002120462BF0E0FD284638BD6FF06F
:1042C0009605F5E738B590F82030052B3CD10579F7
:1042D0000446FF2D1CD09DB9406A78B1A16AFFF752
:1042E000CBFB94F82030043B012B25D8E16919BBA6
:1042F0002C2220462BF0C1FD284638BD0546F5E7A7
:10430000806800F0B3FF0546606A0028E6D1E8E760
:10431000406A38B1A16AFFF7AFFB94F82030043B44
:10432000012B09D8E16939B96FF084052C222046A8
:104330002BF0A3FD284638BD2C22002120462BF06F
:104340009CFD6FF09605D7E76FF08805D4E700BFB6
:1043500000B9704700B583B0012201A900F0A2FEA8
:1043600030B9019800F02CFE28B10198FFF7AAFFA0
:1043700003B05DF804FB6FF09900F9E730B505462E
:1043800083B008460C4600F001FD0022284601A932
:1043900000F088FE88B9019DA446AE46BEE80F0035
:1043A000ACE80F009EE807008CE80700238B284646
:1043B00003F00103238300F025FF03B030BD00BFED
:1043C000008838B5144600F4E042B2F5805F049DE1
:1043D00010D0B2F5005F0DD044F2010220F4405C31
:1043E000944507D000F44F40B0F5824F02D0B0F5AD
:1043F000844F0ED1AC420FD8224618462BF048FD10
:1044000000212A1B20442BF038FD059B00201C6056
:1044100038BD6FF0850038BD6FF0890038BD00BF32
:104420002DE9F0438DB0002A41D015460022884680
:104430001A6002A91E4600F035FE044678B9029FB4
:104440003B8803F4E043B3F5804F0CD0FB68DB07F7
:1044500009D43846029400F0D5FE6FF0840420465B
:104460000DB0BDE8F0830023D7E909E9BC4603ACF1
:10447000CDE90A33BCE80F000FC40B469CE80700E7
:104480001B0A84E8070015D143464A467146CDE928
:10449000005603A8FFF794FF0446384600F0B2FE2A
:1044A000002C08BF044620460DB0BDE8F0836FF035
:1044B0008904D4E7384600F0A5FE6FF08604CEE705
:1044C000B0F800C038B514460CF4E042B2F5804FA5
:1044D000049D1CD144F201022CF44050904207D0BC
:1044E0000CF44F4CBCF5824F02D0BCF5844F0ED17A
:1044F000AC420FD8224618462BF0CAFC00212A1BDA
:1045000020442BF0BAFC059B00201C6038BD6FF0E6
:10451000850038BD6FF0890038BD00BF002A38D053
:104520002DE9F041154600228CB00F461A6002A911
:104530001E4600F0B7FD40B9029C23885B0407D4F7
:10454000204600F05FFE6FF086000CB0BDE8F08101
:10455000A446D4E909480DF10C0ECDE90A00BCE8E7
:104560000F00AEE80F009CE807003B468EE807000E
:10457000214642460196009503A800F093FC0446AC
:10458000029800F03FFE002C18BF20460CB0BDE89A
:10459000F0816FF0890070472DE9F04F00248BB057
:1045A000CDE907441C60002A00F09980B2F1005F59
:1045B000154680F09180884608AA07A91F4606463E
:1045C000FFF7A0FA044600284FD1DDF81CA0DAF866
:1045D00024B0BBF1000F58D0D146BAF8022059F8E8
:1045E000283F099272680593120A51D1CDE900392A
:1045F00009AB02932A465B464146304602F0FAFF79
:1046000010F1860F044657D07CBBDDF81CA0099A38
:10461000BAF8021000294CD0914239D14FF6F87106
:104620008A4256D832881AB1BAF8001091422FD176
:10463000326A6ABB72881AB1BAF80210914227D165
:104640009AF8042032B1DAE90912504600F06CFE03
:10465000044650B9DAF80820022150463A6000F0CA
:1046600083FC044668B100233B60DDF81CA0BAF16E
:10467000000F06D00421504600F076FC5046FFF7AC
:1046800005FE20460BB0BDE8F08F7268120A02D01A
:104690006FF08604EEE72946012000F015FFCAF806
:1046A0002400F8B1CAF82850DDF81CA0DAF824B0CC
:1046B00092E7AAF80220B1E709ABCDE90193059B87
:1046C0002A46009341465B463046FFF7ABFD044661
:1046D0009AE76FF08504CDE76FF08504D1E76FF0BE
:1046E0008604CEE76FF08C04BFE700BF10B5044628
:1046F000006868B106280CD104F1080003F0B2F993
:104700000022A388226023F4FF7323F00103A38017
:1047100010BD6FF08600F3E70123FFF7BFBC00BFB9
:1047200070B50446006800B3CAB106281AD104F176
:104730000806304603F0DCF8054680B123687BB1FB
:10474000062B02D1304603F08DF90022A3882846BB
:1047500023F4FF7323F00103A380226070BD0025C2
:10476000284670BD6FF08605EFE76FF08805F7E724
:104770002DE9F84306680446884615461F46A6B14B
:104780004279D20711D502797AB1AA423ED8062ED3
:1047900057D100F10809484603F000F90646002801
:1047A00037D000233D60237105E06FF088060023B9
:1047B0003D602371BDB12A46212140462BF05DFBAF
:1047C00023686BB1062B03D104F1080003F04AF90A
:1047D0000022A388226023F4FF7323F00103A38047
:1047E0003046BDE8F8832368002BF9D0062B03D1AF
:1047F00004F1080003F036F9A388304623F4FF7370
:1048000023F00103A3802560BDE8F8836FF08906DB
:10481000CDE7386821212A1A40442BF02EFB23686B
:10482000002BDDD0062B12D1484603F01BF90022E5
:10483000A388064623F4FF7323F00103A3802260BC
:10484000CEE700233D606FF086060371B3E7A388CF
:10485000266023F4FF7323F001036FF08606A38024
:10486000BEE700BF30B585B0089C099D00940124C7
:1048700001950A9DCDE90254FFF7A4FB05B030BDB8
:104880002DE9F04700251F4601F0FE4398B0B3F133
:10489000806FDDF8888009950BD0284600F0B2FCC7
:1048A0006FF0860500232846C8F8003018B0BDE830
:1048B000F0870B460C46164609A94FF48072FFF7A5
:1048C0000BFB054600286FD1DDF824E00FADF44660
:1048D000CDE91600BCE80F00BEF800900FC59CE8BB
:1048E000070009F4E04ABAF5005F85E807003AD00E
:1048F00042F20403994561D0514B9C4264D04FF081
:104900000009DEE90912209B002B7FD003EB090090
:10491000109B1B0A40F084802346219C02960BAE1C
:10492000CDE9037005940FA8CDF81880CDF8049058
:10493000009602F045FC044614F1860F099873D0E6
:1049400000F060FC0546002C68D10028AAD1B9F11E
:10495000000F2DD12846D8F800304B44C8F800305D
:1049600018B0BDE8F08719F4E06FC9F30223BFD097
:10497000344924F480728A420AD001F500718C42D5
:1049800006D031498C4203D0A1F53F418A42AFD1D4
:10499000012202FA03F9B9F1100F17D9704600F09D
:1049A00031FC6FF083057DE7099800F02BFC79E777
:1049B0004A46314620982BF06BFACBE7234B9C42BA
:1049C0009AD14FF00C0901E04FF00D09219B4B45A6
:1049D00005D2704600F016FC6FF0890562E71C48AE
:1049E00003782BB300234A460A9304300AAB0BA981
:1049F00003F046F8054658B90A9B4B451BD1219B4D
:104A0000DDF824E0A3EB090321937AE720987FE700
:104A1000DDF824E0704600F0F5FB43E7254641E76A
:104A2000704600F0EFFB3BE700F0ECFB254639E772
:104A30006FF08805EEE76FF09305DDF824E0E9E715
:104A40000013C0040010C00400FF400400018004F3
:104A5000601C00202DE9F0420024174600F0FE42C1
:104A600086B0B2F1106F0D9E049415D06FF08605DC
:104A7000214803783BB1002432460C99043005AB41
:104A8000059402F0FDFF0E9B04981E6000F0BAFB37
:104A9000284606B0BDE8F0820446994608462346FB
:104AA0004FF4804204A9FFF717FA05460028DFD12A
:104AB00004990B8823F0FF03B3F5E24F14D0B3F54C
:104AC000E44F11D020460E9C4B46CDE901640C9C6E
:104AD0003A460094FEF7E0FF05460028C8D1049846
:104AE00000F090FB0546D3E74B880733B6EBD30FB6
:104AF000E8D26FF08905BBE7601C002070B50C4D53
:104B000082B02B7883B10C4600260146224601ABC9
:104B1000281D019602F0B4FF20B9019BA34218BFE3
:104B20006FF0930002B070BD6FF08800FAE700BF2D
:104B3000601C002000232DE9F047428884B0CDE9B5
:104B400000330B60002A00F0E2800388054603F47E
:104B5000E043B3F5804F00F0DA800E4601AA6946C3
:104B6000FEF7D0FF009F044688BBD7F82480B8F139
:104B7000000F38D03B466A6853F8289F120A40F06D
:104B8000C98029884A0463D54A464146284602F02E
:104B900045FC10F1860F044659D0002840F096805D
:104BA000009D2B7943B1D5E90912284600F0BCFBE2
:104BB0000446002840F0A980AB68022128463360F3
:104BC00000F0D2F9044650B10023009F336037B1A2
:104BD0000421384600F0C8F93846FFF757FB204655
:104BE00004B0BDE8F0876B681B0A74D12888698817
:104BF00000F4E043B3F5805F62D0B3F5005F5FD0AF
:104C000020F0FF00B0F5E24F18BF6FF08504DFD150
:104C10000731CC0802942146012000F055FC78624F
:104C2000002800F08280DDF800A06A685346BC626C
:104C3000120ADAF8248053F8289FA2D06FF0860475
:104C4000B8F1000F18D15746CAE90988C0E729888A
:104C5000EB69002B4FD001F4E041B1F5805F16D035
:104C6000B1F5005F13D0DDF800A06FF08504DAF82D
:104C70002480B8F1000FE6D0DAF828904946404683
:104C8000FEF7FAFE0023009FCAE909339FE729488F
:104C90000378002B42D0002441464A46043003AB3F
:104CA000039402F0EDFE044680B9039B4B453FF4AC
:104CB00077AFDDF800A06FF09304DAF82480BFE747
:104CC000FFF766FA0446002882D1A1E7DDF800A0CC
:104CD000DAF82480B4E7284602A900F083F8009FA0
:104CE000044600287FF473AF7B6A029C002B92D0AD
:104CF0006FF08A046CE72B6A002BACD0DDF800A0C3
:104D00006FF08604DAF824809AE7009F5FE76FF07F
:104D1000860464E7BA466FF08604AFE7DDF800A0CA
:104D20006FF08804DAF824808AE76FF08C04009F23
:104D30004DE700BF601C002070B5124D2B7813B1F9
:104D40000024204670BD02F099FE044658B90223A3
:104D50000126C5E90100AE706B7000F037F904461A
:104D600008B92E70ECE700F039F96B782BB90C21FB
:104D70000448FEF775FE204670BD0023024A6B60B2
:104D80005360F4E7601C0020641C002010B504464A
:104D9000C06900F0A9FB2046BDE810402422002194
:104DA0002BF06BB82DE9F04104460E461D4653B971
:104DB0009846E06908B100F097FB0020C4E9078538
:104DC0002680BDE8F08119460120174600F07CFBE3
:104DD000804620B139462A462BF05AF8E9E76FF0B1
:104DE0008C00EEE710B444680288240A438854D14A
:104DF00002F4E040B0F5805F2AD0B0F5005F27D024
:104E000002F44F40B0F5844F34D047F201008242A3
:104E100029D044F20100824232D047F2020082429D
:104E200031D044F20200824232D022F0FF02B2F5C9
:104E3000E24F1FD0B2F5824F1FD10733DB085B0072
:104E40000133012B19D000200B605DF8044B704733
:104E50000733DB0811D022F0FF02B2F5824FF2D106
:104E6000012BF0D109E05B080133DB0803EBC3033E
:104E70003B33E8E70733DB08E5D16FF08500E4E773
:104E8000DB081033DFE7DB0803EB43035A33DAE7D1
:104E9000DB0803EB43034A33D5E700236FF08600BA
:104EA0000B60D2E72DE9F047456882B05FEA152C28
:104EB000DDE90A891AD1CDE9008904468A461646F9
:104EC0001F4602F021FB10F1860F02D002B0BDE8B0
:104ED000F0873B46324651462046CDF82C90CDF81F
:104EE000288002B0BDE8F047FFF7EABA6FF086000D
:104EF000ECE700BF00F100420332022A0AD84FF06B
:104F00002C0C0F4B0CFB02339A68824213D1002009
:104F10000B607047002802DC6FF087007047084B79
:104F20009A689042F3D05A6B904207D01A6E904222
:104F300008BF5833EBD06FF08B0070472C33E6E797
:104F40006C1C00206FF04043421E9A4209D331B1DD
:104F500000F1404098428CBF002001207047084675
:104F600070470120704700BF90F820200346052AB3
:104F700007D8DFE802F0121A0C0A0305052900D051
:104F800041B9002083F820107047022913D0CA1EAF
:104F9000022AF6D96FF0880070474A1E012AF0D91C
:104FA0000429EED06FF0870070470229E9D00A1F6C
:104FB000012AEFD8E5E7DA69002AE2D0EAE700BF84
:104FC000C069B0FA80F04009704700BF0122024B6F
:104FD000002083F8842070476C1C0020F8B50B4D2E
:104FE00004272C4605F1840694F820302046043B23
:104FF000012B88BF84F820702C34FFF747F9B442A6
:10500000F2D1002385F88430F8BD00BF6C1C00206D
:10501000F8B5224C064694F884300F467BB32346FD
:10502000002504F1840193F820208AB305B32C33C2
:105030008B42F8D14DB395F82030043B012B29D990
:105040000423284685F82030FFF720F9144A2B1B4B
:105050009B1002FB03F303F10043033B336000208A
:105060003D60F8BD2C3399420FD093F820207AB1DF
:1050700018790028DBD0022AF4D11D46D7E76FF05B
:10508000880000233B603360F8BD6FF08C00F8E7C8
:105090001D46DBE76FF08800F8BD00BF6C1C0020E8
:1050A000A38B2EBA2DE9F0410024554B0C6093F8E8
:1050B000843084B0002B48D007461646FFF71AFF0D
:1050C0000D46044628B9002E36D0012E4CD00024BF
:1050D00002E010F18C0F03D0204604B0BDE8F0814F
:1050E00001A8FFF795FF04460028F5D10123D5F864
:1050F000008002900390C8F80870404603AA02A9F5
:10510000C8F8043000F07EF90446002837D0DDE905
:10511000020100F075F9286890F82030043B012B5B
:1051200084BF042380F82030FFF7B0F814F18C0F0F
:10513000D2D16FF08704CFE70A6892F82030012BB4
:1051400003D0F6D9043B012B02D86FF08804C3E7E3
:105150000321D36982F820105C1C08BF6FF096040D
:10516000BAD00133D361B2E70A6892F82030002B3D
:10517000DFD0052BE9D0052382F82030A7E702997C
:105180004046039AFFF734F80446DDE9020100F0D7
:1051900037F9002CBFD198F82030032B2AD00DD836
:1051A000022B0ED1286890F82030043B012B84BFDD
:1051B000042380F82030FFF769F8C6E7043B012B91
:1051C000F0D9022388F820302A68D368D80402D5A1
:1051D00043F48063D360990444BF43F40063D36015
:1051E0001EB1012E7FF473AFBFE792F82030012B80
:1051F000A7D1AAE7D8F81C30002BE2D0D2E700BF35
:105200006C1C002060B190F82020032A0AD0052AE7
:1052100012D0042A1DD1C269C2B1013AC2619AB149
:1052200000207047C2698AB1013AC261002AF7D1F1
:10523000022280F82020F3E7C2693AB1013AC26144
:10524000002AEDD1FFF73EB8FFF720B86FF09600C7
:1052500070476FF08800704700207047C0B2FF2889
:105260000CBF6FF086000020704700BF10B582B001
:105270006A460021044601F031FF8C300BD000213A
:10528000204601F049FF014640B96A46204601F038
:1052900025FF8C3002D1002002B010BD6FF09800C5
:1052A000FAE700BF2DE9F8432329089F33D90D46BB
:1052B00090461C490822044699462AF0B4FD064649
:1052C00048BBA3683BBB216A243D8D42C9F800104E
:1052D00021D3B1F5005F1ED281B9C8F80000E368A0
:1052E0007B60238A3B80638A7B806369FB60A36960
:1052F0003B61E3697B613046BDE8F883012000F043
:10530000E3F8C8F8000048B1D9F8002004F12401FE
:105310002AF0BEFDE3E76FF09806ECE76FF08C062D
:10532000E9E700BFD00D04082DE9F04385B000295E
:105330005DD01646002A5AD0B2F5005F51D202F174
:10534000240805460F460120414600F0BDF80446FA
:1053500000284FD04FF00009284BC4F8089003CB29
:10536000206061606B683246E3602B883946238297
:105370006B8804F124006382EB6863612B69A3618D
:105380006B692662E3612AF083FDAE6849463046C8
:1053900002AA01F0A3FE8C3009D06FF08A054146C5
:1053A0002046FEF769FB284605B0BDE8F083494674
:1053B000234642463046CDF8009001F0ADFD01464F
:1053C00090B9304602AA01F089FE054620B9029B39
:1053D0009845E4D06FF098053046002101F09CFE1E
:1053E000DDE76FF08D05DEE76FF09805D7E76FF02A
:1053F0008605D8E76FF08C05D5E700BFD00D04080F
:10540000FEF73ABB2DE9F047D0F8088086B00E468B
:1054100017460021054604AA404601F05FFE0446F7
:10542000A0B9DDF810900120494600F04DF8824601
:10543000002838D02146404604AA039401F04EFECD
:10544000044638B149465046FEF716FB204606B0E2
:10545000BDE8F08703AB22462146019340464B4608
:10546000CDF800A001F0DEFD039B0446994518BF6E
:105470006FF09804E6D1002CE4D13B463246494611
:1054800050460095FFF70EFF04460028DAD1336836
:1054900033B13B68002B14BF04466FF09104D1E791
:1054A0006FF09104CEE76FF08C04CFE738B5044677
:1054B00004F018FF054620461DF0D2FD044628469C
:1054C00004F014FF204638BD70B50E46044604F0C3
:1054D00009FF3146054620461DF0A8FD0446284632
:1054E00004F004FF204670BD38B5054604F0FAFE0E
:1054F000044628461DF0BCFD2046BDE8384004F0B7
:10550000F5BE00BF05F056BE08B522F031FD0AF029
:105510006DF923F08EFC24F0AFFA002008BD00BF27
:10552000024A034903480DF063B800BFD80D0408D0
:10553000FC0D0408440E040808B506F0C7FB06F08D
:10554000DBFB06F0E1FB06F0F1FBBDE8084006F0EE
:10555000F9BB00BF08B506F0F7FB06F0F7FB06F055
:10556000F7FBBDE8084006F0F5BB00BF00230B7059
:10557000704700BF38B500F03BFC0B4D0B4B296862
:105580001A68411A32B129B1002453698B4203D3FE
:105590005B1A5361286038BD54619268C91A002AA9
:1055A000F3D1286038BD00BFF81C0020FC1C00208F
:1055B000C38870B505460C46A3B1154E6C613368BF
:1055C000EBB1002005E09968A41A18466C61C9B1D6
:1055D0000B465A69A242F6D9B8B93560121BAB60C6
:1055E0005A6170BD00F0D4FD84420646E5D23446CF
:1055F000074E00F0E9FD33686C61002BE1D13560A6
:10560000AB6070BD9D60A96070BD8560E6E700BFBE
:10561000FC1C002038B5134D2B685B69D3B1124ACE
:10562000022014681C4400F01FFC204600F0E8FB38
:1056300000210E480A462B68017005E09B6843B1C3
:1056400059690A44012A04D8D9888907F6D5012363
:10565000037038BD022000F007FC022000F028FC97
:10566000E6E700BFFC1C0020F81C0020FE380020EC
:10567000F8B5164600279DF81CE0BDF820C0069A34
:1056800004460D46C0E9033680F804E002608760F6
:10569000A0F806C066B900F0ABFB2844A0619DB934
:1056A000E368656103B32046216898470020F8BD90
:1056B00000F09EFB3044A06135B9E368656113B129
:1056C000204621689847354604F00CFE0646FFF751
:1056D00051FF29462046FFF76BFF064B1B68A3428C
:1056E00004D0304604F002FE0020F8BDFFF792FF20
:1056F000F7E700BFFC1C00200E4A1368A3B18342E9
:1057000002D113E0984206D01A469B68002BF9D1CB
:1057100008B102207047836893601BB15A694169E0
:105720000A445A61002070470028F2D18368136050
:10573000F3E700BFFC1C002070B504F0DBFD144E45
:1057400005463478D4B9134B134A1C60134B1460CC
:105750001C8000F009FB012000F086FB00F0DAFB62
:105760000F4B0246186070B1234640F2E7310D48F6
:105770001DF0CCFA01230C4C33702060284604F055
:10578000BFFD002070BD284604F0BAFD232070BD87
:10579000FF380020F81C0020FC1C00209838002056
:1057A000001D002018FCFFFFF41C00202DE9F0472D
:1057B00084B09DF83090BDF834A018B31E46002385
:1057C000C3610F469046054604F094FD0F4B1C68DC
:1057D00024B1A54210D0A468002CFAD104F090FDA9
:1057E0004346224639462846CDE9019A0096FFF7FE
:1057F0003FFF04B0BDE8F08704F082FD032004B051
:10580000BDE8F087222004B0BDE8F087FC1C002032
:105810002DE9F04784B09DF83090BDF834A028B34E
:105820001E460023C3610F469046054604F062FD04
:10583000104B1C6824B1A54212D0A468002CFAD1E8
:1058400004F05EFD434628463A463946CDF808A0A6
:10585000CDF804900096FFF70BFF04B0BDE8F08789
:1058600004F04EFD022004B0BDE8F087222004B011
:10587000BDE8F087FC1C00202DE9F04784B09DF8BE
:105880003090BDF834A0002842D098460E46174606
:10589000054604F02FFD234B1C6824B1A5423BD0E4
:1058A000A468002CFAD104F02BFD1F4B1B689E420C
:1058B0002AD84FF47A711D4B1D4AD3F800C0EC83EF
:1058C0000CFB06F3A2FB0302920901FB1230081A3B
:1058D00080B2884208BF00202146A88340F2E7300A
:1058E0004FF47A72E6FB0C0100231DF00FFA02461A
:1058F0003B4628461146CDE9019ACDF80080FFF7D6
:10590000B7FE04B0BDE8F087212004B0BDE8F08701
:10591000222004B0BDE8F08704F0F2FC022004B0BD
:10592000BDE8F087FC1C0020F41C0020001D0020B6
:10593000D34D621070B540B3044604F0D3FC144E4E
:105940000546FFF717FE3068A0420CD02046FFF74F
:10595000D3FE0446A0B9336873B10024284604F08E
:10596000C5FC204670BDFFF7C7FE044640B933684A
:1059700013B1FFF74FFEF0E7022000F081FAECE7E9
:10598000284604F0B3FC204670BD2224204670BD9A
:10599000FC1C00202DE9F04784B09DF83090BDF844
:1059A00034A098B1002716461D4688460446C761B4
:1059B000FFF7C0FF33463A4641462046CDE9019AFB
:1059C0000095FFF755FE04B0BDE8F087222004B033
:1059D000BDE8F0872DE9F04385B09DF83080BDF833
:1059E0003490A8B11D4600230E4617460446C361F5
:1059F000FFF7A0FF3B46204632463146CDF80890DF
:105A0000CDF804800095FFF733FE05B0BDE8F083C4
:105A1000222005B0BDE8F083F8B504460F4604F037
:105A200069FC144B06461B68F3B1002503E0FF2C0C
:105A300006D09B68C3B1DA885969A2420D44F6D1F9
:105A400000F0D6F90C4C2368C01AA84206D30023F4
:105A500030463B6004F054FC0020F8BD00F0C8F96B
:105A600023682B441B1AF3E7304604F049FC1B2043
:105A7000F8BD00BFFC1C0020F81C002038B50B4B03
:105A8000187800B938BD04F035FC054600F0B0F9CF
:105A90000446284604F034FC054B1B689869201A1C
:105AA00002288CBF0020012038BD00BFFE38002036
:105AB000FC1C002038B504F01DFC054600F098F9E8
:105AC0000446284604F01CFC204638BD014B1868EB
:105AD000704700BF001D002000230122F0B51A49C5
:105AE0008FB00D9306460F688DF8172004F002FC66
:105AF000164B06AD1C6824B1AC4220D0A468002C23
:105B0000FAD104F0FDFB40F2E73021464FF47A72FF
:105B10000023E7FB06011DF0F9F80DF1170301461C
:105B2000009328462246CDE90144094BFFF7A0FD2A
:105B300018B99DF81730002BFBD10FB0F0BD04F061
:105B4000DFFB0FB0F0BD00BF001D0020FC1C0020DB
:105B50006D55010838B50C4B1A68824212D30024E7
:105B600003460D4640F2E7302146084A1268E3FB3F
:105B700002014FF47A7200231DF0C8F80346204654
:105B80002B6038BD212038BDF41C0020001D0020F2
:105B9000014B1868704700BFF41C002008B5114B7A
:105BA0001A689AB1531E134212D14FF47A73B2FAA3
:105BB00082F2A0FB0303C2F11F01C840511CD24373
:105BC00003FA01F1084323FA02F20243104608BD2A
:105BD0004FF47A710023A0FB01011DF097F80246F3
:105BE000104608BD001D0020C2072DE9F0470446FD
:105BF00003D4A30710D4BDE8F087514A13880133BA
:105C00009BB21380FFF7B6FC4E4B1B68002BF0D005
:105C1000FFF700FDA307EED504F06CFB494F0546E6
:105C2000FFF7A8FC3C68002C00F087804FF00009CB
:105C30004E46C8466369002B69D123461A792179FB
:105C4000914288BF1C469B6813B15A69002AF5D05F
:105C5000284604F055FBD4F810A0BAF1000F47D144
:105C6000554604F047FB81462046FFF745FD484670
:105C700004F046FB2369FBB1A38BBAEB050A6BB1B9
:105C8000E28B13449BB2B3F57A7F3ED3A3F57A73CC
:105C9000E383A3691AF1FF3A013BA36104F02AFBF5
:105CA000054651462046FFF783FCA3692269284632
:105CB0001344A36104F024FBE368B4F806900136B2
:105CC00013B120462168984704F014FB0546FFF7FE
:105CD00051FC3C68002CADD11B4B012E1C7022D016
:105CE000022000F0CDF82846BDE8F04704F008BBDC
:105CF00000F07EF8A269851AEB17AA4578EB03033A
:105D0000AFDA23691344A361D6E7E383C6E7002231
:105D10000D4B012E1A700BD0FFF77CFC2846BDE816
:105D2000F04704F0EDBA19F0020FD9D01E70D7E792
:105D300019F0020F18BF1E70EEE7034B1C70CFE77F
:105D400098380020FC1C0020FD38002010B504F01D
:105D5000D1FA034B1C7804F0D3FA204610BD00BFE3
:105D6000FD38002000F0DAB810B500241D4B84B0D7
:105D700003F1080293E803000290ADF80C1092E8DA
:105D8000030000908DF804103E20012103F08EFCEA
:105D900002A88DF808408DF80C4005F057F8012056
:105DA00069468DF8004004F0F5FF4FF0B04240F234
:105DB000FF3093690C4923F47F7323F0030393614D
:105DC0004861936A13F00803FBD11362012004F0C9
:105DD000FDFF4FF40042054BC3F880211A6004B068
:105DE00010BD00BF740E04080020005800E100E060
:105DF0004FF0B042936A1B07FCD4106A704700BF93
:105E000010B5044604F06EFA4FF0B042936A1907D9
:105E1000FCD4136A116C5269520602D4CA1A032ABE
:105E20001CD9E21A022A98BFDC1CB4F1FF3F38BF2C
:105E3000013C4FF0B0431C649A6942F040029A6101
:105E400004F054FA074B1A783AB14FF0B0410020F1
:105E5000CA6B42F00202CA63187010BD9942EFD1BA
:105E6000DFE700BFDE0D002082074FF0B04200F0F8
:105E70000103916948BF43F040030B4393617047AE
:105E8000830700F001020AD54FF0B0410120074B13
:105E900042F040021870CB6B23F00303CB634FF04A
:105EA000B0418B6923EA02038B617047DE0D00204D
:105EB000830702D54022014B5A61704700100058F9
:105EC0004FF0B04301285B6906D0022802D1C3F32A
:105ED000801070470020704703F00100704700BF3A
:105EE00010B504F007FA4FF0B04304465B695A0658
:105EF000074A03F0010003F0510348BF40F00200DD
:105F00005361FFF771FE2046BDE8104004F0F8B978
:105F1000002000583E2003F0E9BB00BF3E2003F004
:105F20005FBF00BF0A4BD3F8403203F00303013BCD
:105F3000012B00D9704710B504F0D4F904460121B3
:105F4000022000F0A9F82046BDE8104004F0CEB9C8
:105F500000800050F8B5124B06460F4653F821500A
:105F6000032805D8DFE800F01916021345F02005D4
:105F70000C4B1C6854B163681A68154203D039464B
:105F800030465B6898472468002CF4D1F8BD45F092
:105F90008005EDE745F00805EAE745F00205E7E78B
:105FA000840E0408341D002038B5144C23786BB1DE
:105FB000134D2B78BBB9002000F02EFC38B901221C
:105FC0001048114B114900781A70087038BD00F064
:105FD00025FC00230B4D012128782370FFF7BAFF21
:105FE00001232B7038BD00F0BBFB002300202B7079
:105FF00000F012FC0028E2D0E9E700BF05390020DC
:10600000033900200A390020063900200739002012
:1060100010B504F067F9054B1B781BB90446FFF770
:10602000C3FF2046BDE8104004F060B902390020EB
:1060300070B504F057F9134E0546337873B9FFF77E
:106040007BFB0446C8B9104805F08CF8FFF76AFFDF
:106050000E4B1C60FFF73AFD0D4B186000F04CFA38
:1060600000F026FC0024014601230A4A284611605C
:10607000337004F03BF9204670BD284604F036F931
:10608000204670BD0B390020341D0020041D002067
:10609000301D0020081D0020F0B52A4C431EE25C94
:1060A00083B071B1284D01322878E254012806D915
:1060B000237883B96378032463BBA04205D103B07E
:1060C000F0BD013AE25403B0F0BD2146FFF742FFB4
:1060D0002C7003B0F0BD1D4E04F004F93378A3B169
:1060E0001B4F3B781BB901223A701A4A13701A4CA5
:1060F0002378FBB904F0FAF8012000F08DFB04F0DE
:10610000F1F83B787BB90023337004F0EFF80124F9
:106110002878D2E7032801D00224CEE700F0E4FB80
:1061200002242878C9E7019000F078FB0023019849
:106130003B70E8E7019000F013FB00230198237007
:10614000D8E700BF2C1D00200A39002005390020A7
:1061500002390020063900200339002038B50446F2
:1061600004F0C0F8002C0CBFFF2201220649074DA5
:106170000B781344DBB2B3FA83F20B7052092A7026
:10618000BDE8384004F0B2B80939002008390020D1
:1061900038B504F0A7F80A4B1B78012B0BD9094B33
:1061A00004461D6800F088FB034620461D4404F0A9
:1061B0009DF8284638BD002504F098F8284638BDDB
:1061C0000A390020041D002010B504F08BF80446A5
:1061D000FFF7EAFE2046BDE8104004F087B800BF94
:1061E00010B54160044604F07DF8034621461C4684
:1061F000034804F0BBFF2046BDE8104004F076B829
:10620000341D0020064A074B126802FB00F000F51F
:10621000742000F23F20A3FB0030800C704700BFC9
:10622000301D002083DE1B432DE9F04F87B0EFF3D4
:10623000108672B6AFF3008005F092FD002800F0E2
:10624000A880B346DFF88092944D954CDFF87C82AD
:10625000944FDFF87CA299F80030002B40F0B58015
:106260002E78002E40F0BB80304605A9FFF7D4FB06
:10627000002840F0A8808C4B059A1B689A420AD9E6
:106280008A4B1A68039200F017FB039A059B02449D
:106290009A42C0F085802E7823780136F6B2012B21
:1062A0002E7004D998F80030002B00F0E98001230B
:1062B00089F80030002E40F092806B78002B3B78FC
:1062C0000CBF03210221002B00F0A5802078784B21
:1062D000884200F0B5801E7098F80030002B00F066
:1062E0008C8021703B7833B9724B1B78002B00F007
:1062F000AF8001233B702178084600F0C3FA98F87C
:10630000003013B16C4B1B782370AFF30080BBF1EE
:10631000000F00D162B6EFF3108B72B69AF800301E
:1063200043B100238AF80030634B20781B789842F1
:1063300000F094806148FFF7FDFA05F021FD002888
:1063400089D15B4B5E4618703B78C3B188F800007A
:10635000DFF8708198F8003043B198E0012000F038
:1063600091FA06B962B6EFF3108672B6002000F01B
:1063700053FA0028F2D000F051FA00233B7099F84C
:106380000030002B6FD100212078FFF7E3FD0023C0
:106390002370AFF3008006B962B607B0BDE8F08F96
:1063A000039200F0A3FA8446334600964FEA8C0627
:1063B000039A059946F00206B6B2891A3F48404A48
:1063C0000196FFF7E7FA2E7874E700232E7889F814
:1063D0000030013EF6B22E70002E3FF445AF21781A
:1063E000012989D00023324A137098F8003013B184
:1063F000012323707FE7084601210391FFF7AAFDDF
:106400002B4B03991B7821700BB1022932D0012943
:106410003FF471AF66E7039100F02EF920780399FD
:10642000234B88427FF457AF1B78002B3FF45AAFC1
:1064300002287FF457AF1E4B1E7029F0A1F951E7D7
:106440001B78002B3FF458AF0228F4D0032153E708
:1064500000F080F901221B4B1A704AE701212170DC
:10646000FFF778FD66E72B78013B2B70002389F856
:10647000003088E700230E4A137029F081F931E7D4
:10648000FFF792FD01232E7889F8003012E7039080
:1064900000F066F9039888F8000067E72C1D0020DB
:1064A0000A39002005390020081D0020041D0020A5
:1064B0000839002009390020073900200C1D002070
:1064C000116001080339002004390020063900203A
:1064D0000039002010B503F005FF0022044B1C78A2
:1064E0001A7003F003FFFFF731FC2043C0B210BD68
:1064F00001390020704700BFF0B5002583B0514E30
:1065000068468DF8005004F087F83378002B75D07A
:1065100001A8ADF8045003F061FF4020FFF772FEC0
:10652000494C35702368034423604FF400354FF421
:1065300000264649464A0B6F464F03F00703136097
:10654000D1F80021444802F003023A60434A46660B
:1065500045669269424DC2F34002032B2A704BD02C
:10656000D1F8203103F00303A3F10203B3FA83F35C
:106570005B09364A3B4ED2F824214FF4C87002F032
:106580000702022A08BF43F001033370FFF73AFE07
:10659000354FDFF8E0C0354B396803F12802CCF8FD
:1065A000000043F8040B9A42FBD101442B7800EB26
:1065B000C00001443960BBB1337853B9234BD3F8E1
:1065C000003103F00303A3F10103B3FA83F35B0982
:1065D00033701E4BD3F8003103F00303022B2DD090
:1065E000032B27D0012B0BD01F20FFF70BFE2368B6
:1065F0000344236003B0F0BD0123BAE7124C94E7D3
:1066000004F0D4FE0246002AEED000231349184EAF
:10661000CD681946C5F30B050135501E05EB850500
:10662000E5FB06011CF072FBFFF7ECFD2368034459
:106630002360D9E704F0D0FE0246E4E704F0DAFE76
:106640000246E0E7DF0D00206C1D002000800050B6
:10665000701D0020741D00200090005000C00150EB
:106660000F390020103900203C1D0020401D002063
:1066700040420F00381D0020074A0848D2F8203158
:10668000074903F003030360D2F8243103F0070342
:106690000B6003F023BF00BF008000507C1D002072
:1066A000781D00200E4B1A7802B9704700210D4A60
:1066B0001970136F23F0070343F001031367D2F837
:1066C000203143F00303C2F82031D2F8243123F003
:1066D000070343F00303C2F8243104F03DBE00BFBA
:1066E0000E3900200080005008B5154B1B7803B907
:1066F00008BD0220FFF7E4FB0028F9D0FFF7BEF940
:106700000028F5D00F4B9A6DD10315D40D4B9B6D1E
:10671000DB07EDD401220C4B1A70FFF7CBF90B4BC2
:106720000B4A1860136F23F0070343F0030313674A
:10673000BDE8084004F010BEDB6D9A07E6D508BD41
:106740001039002000C000500D390020681D0020C5
:10675000008000500122014B1A7070470E39002052
:10676000234B1B78002B34D070B5224D2B785BB9AE
:10677000214B9A6DD10302D5DB6D9A0703D41E4BD2
:106780009B6DDB0726D570BD1C4EFFF793F90021EA
:106790001B4C3268237829701A49801A1A4D51F817
:1067A000232041F823000133D9B22B68101A1B1A99
:1067B000164A2B600933A2FB0303A2FB0102144E0D
:1067C000DB083360D30803EB8303A1EB43012170A3
:1067D00070BD7047FFF76EF9084E0E4A3060136FB8
:1067E00023F0070343F00303136704F0B5FDCCE780
:1067F000103900200D39002000C00050681D002015
:106800000C390020401D00203C1D0020CDCCCCCCFC
:10681000381D0020008000500120704708B503F0AB
:1068200077FE124B12491A6F096822F007020A43D9
:106830001A671049D3F82021096822F003020A439D
:10684000C3F820210C49D3F82421086822F007025C
:106850000A490243C3F824210B7813B10122084BE3
:106860009A62BDE8084004F077BD00BF0080005088
:10687000701D00207C1D0020781D00201039002094
:1068800000E00050022804D003280CD0012803D0D7
:106890007047002003F0B2BD044A136923F00403DB
:1068A000136130BF7047002003F0DEBD00ED00E053
:1068B0004FF4C870FFF7A6BC054B187818B1054B0C
:1068C000186800EBD000044B1B681844704700BFE9
:1068D00010390020381D00206C1D00200122014BC2
:1068E0001A70704710390020704700BF014B1878AC
:1068F000704700BF1039002030B4BFF35F8F334BB7
:106900005A6A22F480325A62D3F8942022F00102AB
:10691000C3F89420BFF34F8FBFF36F8F2C492D4ADC
:10692000914232D0D3F8C01022F01F0221F0FF01B3
:10693000203A41F0A001B2F1005F2748C3F8C0102F
:1069400037D20168254B214C254D23F01F0343F01E
:106950000303C4F898104A1CC4F89C30C4F8A05033
:106960000260BFF35F8F0522184BC3F894205A6A68
:1069700042F480325A62BFF34F8FBFF36F8FBFF381
:106980004F8FBFF36F8F30BC7047D3F8C0201248D1
:1069900022F0FF0242F0A002C3F8C0200268114CAE
:1069A0001149C3F89820C3F89C400132C3F8A010E5
:1069B000D6E701680B4C42F00102C3F89810C3F807
:1069C0009C400131C3F8A020BCE700BF00ED00E00F
:1069D000B0100020040E0020801D0020CF100020E9
:1069E000E1FFFF3F0300002001000040F0B4BFF3CF
:1069F0005F8F394B5C6A24F480345C62D3F8944036
:106A000024F00104C3F89440BFF34F8FBFF36F8F9E
:106A10001F2A2ED9314FC20618BF20F01F003E6832
:106A200018BF2030CB0618BF21F01F01002E51D017
:106A30000023294A1D460CE0A04201D8614547D2F7
:106A4000D2F89840B34224F0FF041D46C2F89840A3
:106A500024D2C2F89850D2F89C40D2F8A05024F02A
:106A60001F0C01336045DBB225F01F04E4D1A142C5
:106A7000E2D10020BFF35F8F0522174BC3F89420AB
:106A80005A6A42F480325A62BFF34F8FBFF36F8F5E
:106A9000BFF34F8FBFF36F8FF0BC7047741C0E4B6A
:106AA00020F01F00D3F8C02021F01F0122F47F4204
:106AB00040F0030041F0030142F48072C3F8C020AB
:106AC000C3F89860C3F89C00C3F8A0103C60D0E7FE
:106AD0002820CFE70124E2E700ED00E0801D002040
:106AE000BFF34F8F0549064BCA6802F4E0621343B7
:106AF000CB60BFF34F8F00BFFDE700BF00ED00E0AC
:106B00000400FA0508B5FFF7EBFF08BD10B5044611
:106B100003F0E8FB024B1C6003F0E8FB002010BD13
:106B2000841D002010B503F0DDFB034B1C6803F04F
:106B3000DDFB204610BD00BF841D002010B582B0D3
:106B400038B10446636883B1206802B0BDE81040E4
:106B50001847CDE9001203F0C5FB054B1C6803F094
:106B6000C5FBDDE90012002CECD1232002B010BDE2
:106B7000841D002030B587B070B104462BB1A568E4
:106B80003DB12068A84707B030BDA56805AB002D12
:106B9000F7D1232007B030BD094CCDE90223019184
:106BA00003F0A0FB246803F0A1FBDDE90112039BC5
:106BB00013B1002CE3D1ECE705AB002CDFD1E8E703
:106BC000841D00202DE9F0410D46164628B30446E9
:106BD000174F03F087FBD7F8008003F087FB44458D
:106BE00015D003F07FFB3C6003F080FB3146284664
:106BF0001CF090FB044603F075FBC7F8008003F01F
:106C000075FB002CD4BF37200020BDE8F081314651
:106C100028461CF07FFB0446F3E703F063FB03F018
:106C200065FB314628461CF075FB0446E9E700BFCA
:106C3000841D00200EB400B582B003AA52F8041BD4
:106C40000192FFF7BFFF02B05DF804EB03B070479D
:106C500010B500201C46FCF727FE002820600CBF62
:106C60001B20002010BD00BF08B50020FCF76EFE01
:106C7000002008BD10B50023012482B01A46194631
:106C800018460094FCF77CFE002300941A4619462F
:106C90001846FCF7B1FE0348FFF738FF002002B0AA
:106CA00010BD00BFC40A002000B5074B83B093E8B5
:106CB000030000906846ADF8041003F02BFD00209F
:106CC00003B05DF804FB00BF940E040810B5002467
:106CD000074A82B0536F684643F00103536700943C
:106CE0008DF8044003F018FC204602B010BD00BF30
:106CF0000040005030B58BB0EC461A4C1A4D0FCC0A
:106D0000ACE80F000FCCACE80F0094E803008CE86F
:106D10000300D5F84C311B0307D54FF6FF73134A18
:106D200014889C421BD0E3B203E0D5F85041E4B292
:106D300023468DF8193003F071F90346234483F399
:106D400008030B488DF8183004F036FB684603F052
:106D500067F8322003F0F8F900200BB030BD8C2327
:106D60001C46E6E79C0E04080080E00F0001E00FDF
:106D700000F0490210B54FF0200E86B0094C0DF11D
:106D8000040C0FCCACE80F00236801A8CCF800304D
:106D90008DF805E003F086F90A2003F0CFF9002012
:106DA00006B010BDC40E04086FF004024FF0500C82
:106DB00010B40C480C4C02F00F03043B12F0800F8F
:106DC00000EB0201234408D10132432A81F800C3B9
:106DD000F1D100205DF8044B704783F818C00132F0
:106DE000E9E700BF00E100E000ED00E000B585B09C
:106DF00001F0EEFAC30707D4012002F0C5F9A0B9EB
:106E0000002005B05DF804FB00236846CDE900339F
:106E1000CDE9023301F036FBDDE90032029913437C
:106E2000039A0B431343EBD1E6E76FF09200E8E7D8
:106E30004FF400510322034B00209966C3F86022EF
:106E4000704700BF0090005008B501F0C1FAC307B9
:106E500008D44FF400510322074B00209966C3F871
:106E6000602208BD01F02EFB0628F2D00A28ECD1E2
:106E700002F098F9E9E700BF00A000504FF400517C
:106E80000322084B10B59966C3F86022FFF7AEFFE6
:106E90000446FFF7D9FF00280CBF20466FF0920090
:106EA00010BD00BF0090005030B5184D83B02B7856
:106EB0001BB10024204603B030BD154ACDE9003295
:106EC00002AB13E9030001F099F84FF400510322DB
:106ED000104B9966C3F86022FFF788FF044602F062
:106EE0006BF940F0004001F035FCFFF7ADFF30B921
:106EF000002CDFD1012320462B7003B030BD002CC5
:106F000008BF0446204603B030BD00BF1139002041
:106F1000DD910108009000502DE9F04F87B08046C8
:106F20000F469A461546DDF840B02AB1002B67D0CF
:106F300040F26C739A4260D8BBF1010F63D800260F
:106F400005F11009494601200596FEF7BDFA0446F1
:106F500000285BD031464A4628F08FFF05ABCDE9CB
:106F6000006602930122234640463946FBF7F4F8B7
:106F7000064600283BD1274BC4E90287C4F804B079
:106F800023606DBB244B059D186822464B4629465D
:106F900014F0A6FF68B16FF091064A460021204622
:106FA00028F06BFF2046FEF79FFA304607B0BDE899
:106FB000F08F012305F01F02A5F506251748A5F55A
:106FC00050656D09934050F8252015491A4340F843
:106FD000252051F8252022EA030241F82520DCE78C
:106FE0002A46514604F1100028F052FFCAE710F17A
:106FF0008C0F08BF6FF08D06CFE76FF09106D4E7D6
:107000006FF08606D1E76FF08506CEE76FF08C064D
:10701000CBE700BF105D175EF80A0020881D002036
:1070200060190020F0B58DB01646DDE912751C46DA
:107030002BB30DB307B3B7F1005F1DD3C3F10053FA
:1070400003F580339F4217D8002207AB029305ABAC
:10705000019306AB009308ABCDE90522CDE90922E7
:1070600008920B92FBF778F808B10DB0F0BD0598C7
:1070700086422BD3304317D06FF08600F5E707AC7C
:10708000029405AC019406AC1A46CDE90533CDE96E
:10709000093308930B93009408ABFBF75DF80028C5
:1070A000E3D1059B9E42E7D800202860069B009014
:1070B00009483A4607993344006814F0A9FF0028AC
:1070C0000CBF00206FF091000DB0F0BD801BA042FE
:1070D00028BF2046E9E700BFF80A0020CAB110B572
:1070E000144600228CB007AB029305AB019306ABAC
:1070F000009308ABCDE90522CDE9092208920B9255
:10710000FBF72AF818B9099A059BC4E900320CB0BC
:1071100010BD6FF086007047002270B58CB007ABD1
:10712000029305AB019306AB009308ABCDE90522B2
:10713000CDE9092208920B92FBF70EF8044678BBC2
:10714000099B012B32D0079D1A4B2946186814F071
:10715000F7FF40BB0121A5F50623174AA3F55063AD
:107160005B09164E05F01F05A94052F8235056F84A
:1071700023004D4042F82350084346F82300D2E94B
:1071800000310B4491680B44D2E903120B44D34203
:1071900006D100220023C6E90023C6E90223346198
:1071A00020460CB070BD6FF09104F9E76FF08404D5
:1071B000F6E700BFF80A0020881D002060190020B3
:1071C0002DE9F0410E468AB0DDF85080169FDDE9CA
:1071D0001214002E51D01546002A4ED0002953D04B
:1071E000109A002A46D0B8F1000F49D0002F44D0A1
:1071F0002B4A93424BD10388B3F5105F47D14388A4
:10720000B5EBD30F39D323F04002802A02D0B3F577
:10721000807F32D1ECB1414520D3159B9C423CD8B4
:1072200014F00F0329D1CDE90165CDE90331CDE992
:107230000543CDE907840993FFF7FAFD50BB07AA80
:1072400004A901A801F034FA0546FFF7FDFD054346
:1072500020D100203C600AB0BDE8F0810B199845B0
:10726000DBD2159B9C4208D82246404628F0EBFD15
:107270004146D5E7119A002AB5D06FF08600EAE7BB
:10728000159A002AB2D0F8E7002CA9D0F5E76FF0E4
:107290008500E0E76FF09200DDE76FF08900DAE744
:1072A000004440042DE9F04FABB0349C369F0029D8
:1072B00000F0A2809146002A00F09E80002C00F091
:1072C0009B80002F00F098801E46389B002B00F01A
:1072D000938000258A464D4A0DF15C08834607CA13
:1072E00088E807003C2229461BA81A9528F0C5FD0E
:1072F000BAF80010BAF802C001F4E042B2F5804FCB
:107300007AD0434A43480BEA020242F010628242BA
:1073100075D1BCF5807F72D147F2121291426ED1C5
:107320003D4B1F2E19691A6801EB4101DB684FEADA
:1073300041011995189117920B935DD9359B402BFC
:107340005AD9379B1F2B5DD94022CDF830904FF092
:10735000200921780134109404291AAC14940E9554
:1073600011921592CDF834901295169544D1FFF7ED
:107370005FFD064618B130462BB0BDE8F08F0B9B81
:107380000DF1140ECDE9089314AA07CA0C9B8EE8E0
:1073900007000DF1400C02AE9CE8070086E80700EC
:1073A0000DF1340999E803008DE8030098E807001F
:1073B00001F0FCFB0646FFF747FD06431CD1A6463D
:1073C000A446BEE80F00344638607960BA60FB60BE
:1073D000BEE80F0038617961BA61FB6163460CF168
:1073E000010C1C702AAB9C45F8D120233046389AFA
:1073F00013602BB0BDE8F08F6FF08606BBE76FF02F
:107400008506B8E76FF08906B5E700BF200F0408CE
:107410000000FFF600000209340F0408002863D0C2
:10742000F0B50C468DB0002958D0002A56D01D4624
:10743000002B53D0038803F44F41B1F5824F03D0A2
:107440006FF085000DB0F0BD23F0FF01B1F5E24F04
:10745000B0F802C0DBB2F3D1122B4BD10CF1070113
:10746000B2EBD10F4FEAD1063BD3244A06AFBCF5AD
:10747000807F07CA87E80700E2D1122B07D10022DC
:107480001F4B08921A691B68079213440693002346
:10749000CDE909460B93FFF7F1FC0028D2D1FFF7A5
:1074A000C7FC0028CED1174B04AACDE9040302ABD8
:1074B00092E8030083E803000CAB13E903008DE8B6
:1074C0000300099B97E8070001F0DCFB0446FFF787
:1074D000BBFC20430BD12E600DB0F0BD6FF08600D9
:1074E000B0E76FF08900ADE76FF0860070476FF08E
:1074F0009200A7E7172BB1D0A2E700BF200F040826
:10750000340F0408DD9101082DE9F0438FB0169D7A
:10751000002864D0002962D0002A60D01E46002BCB
:107520005DD0002D5BD0179B002B58D0038803F44F
:107530004F44B4F5824F04D06FF085000FB0BDE822
:10754000F083B0F802E023F0FF00B0F5824FDBB229
:10755000F2D0122B3BD10EF10700B2EBD00F4FEA65
:10756000D0043CD36200571CAF423BD8BEF5807FAD
:10757000E2D1122B2ED04FF00009C84600230C9206
:10758000721CCDE90A32089109940D93FFF750FC63
:107590000028D3D1CDE9054908AA02AC07CA0B9B44
:1075A00084E807000EAA12E903008DE8030098E8BA
:1075B000070001F08DFB0446FFF746FC204314D181
:1075C00004233370179B1F600FB0BDE8F083172BA7
:1075D000C1D0B1E7064B9846D3F80C90CEE76FF0D8
:1075E0008600ABE76FF08900A8E76FF09200A5E78F
:1075F000340F04082DE9F04389B0129F00284CD0C5
:107600000C46002949D01546002A46D0002F44D008
:107610001E46038803F44F42B2F5824F04D06FF048
:10762000850009B0BDE8F083D9B2122901D017292D
:10763000F5D123F0FF03B3F5E24F33D02378042BC9
:107640002BD16B1EDB005B08B3F5807F3B60E6D17E
:1076500012296AD04FF00009C84640230593002341
:107660000693631C0493FFF7E3FB0028D9D1CDF800
:107670000C903B680733DB08029305AB93E80300EB
:107680008DE80300049B98E8070001F0E9FB07463A
:10769000FFF7DAFB0028C4D16FB36FF0860009B0A2
:1076A000BDE8F08342883A609AB3D31DB5EBD30F9F
:1076B000F3D1B2F5807FB2D1122931D000224FF040
:1076C000000E714660192A4412F8013D10F801CDF0
:1076D0004CEA0101BCEB030C0CBF4FF0FF3300235D
:1076E000A04203EA0E0E4CEA0E0EEDD10029D4D0D2
:1076F000BEF1000FD1DA109B9D421BD82A462146CD
:10770000304628F0C5FB0020119B1D6009B0BDE884
:10771000F083EB00B3F5807F3B6080D11229CED19E
:10772000064B1A681B691A44C9E7044B9846D3F8FC
:107730000C9092E76FF0890073E700BF340F0408E4
:1077400000234FF0100C10B58AB0069309930293F2
:10775000436ACDE90712021D3C30CDE90423CDF880
:1077600004C00090FFF764FB60B96B4607A91A4696
:1077700004A800F0C3FF0446FFF766FB002C18BF07
:107780006FF092000AB010BD2DE9F0418EB0149E4A
:10779000189CC9B1C0B1169DB5B1ACB1002E51D085
:1077A000304F458823F47E1CBC454FEAD5054DD1AA
:1077B0000088B0F5105F49D1A5F11007102F03D84C
:1077C0002948F840C00705D46FF0860528460EB05A
:1077D000BDE8F0819542F7D813F47C1FC3F3054749
:1077E00009D11027179B9F420AD96FF089052846B7
:1077F0000EB0BDE8F081102FE6D8179B9F42F4D859
:10780000159A00230892102207960AAECDE90415B6
:1078100000960192069309930293FFF709FB054630
:107820000028D3D16A4607A904A800F057FF804674
:10783000FFF70AFB0546B8F1000F0AD160B1002737
:107840002760C3E7159D002DAAD0BDE76FF0850521
:10785000BCE76FF09205F2E731463A46169828F0F9
:1078600017FBEDE70002C003010101002DE9F04123
:10787000069F10B30D4601B31646044662B36A88EC
:10788000B3EBD20F4FEAD20817D34C220021204687
:1078900028F0F3FA134B27F47E129A421FD12B885B
:1078A000B3F5105F1BD16B88DB08103B102B04D89D
:1078B0000D4A22FA03F3DB0703D46FF08600BDE81C
:1078C000F08142463146201D28F0E2FA0020C4F83B
:1078D00024802760BDE8F081002BD0D0EDE76FF069
:1078E0008500ECE70002C00301010100FFF7BEBF05
:1078F00000284DD02DE9F0410F46002945D016460D
:10790000BAB103680446244823F47E13834239D174
:10791000A56BD5B1C5F1100805F1280042452044FA
:107920002BD3424628F0B4FA1022103EAE19A263BF
:1079300002D10020BDE8F081204604F12801FFF7C4
:10794000FFFE0028F6D14744A063102E07D8324628
:10795000394604F1280028F09BFAA663E9E7751E72
:1079600025F00F052A4639462046FFF7E9FE002894
:10797000E0D1761BDDD02F44E9E7354428F088FAC2
:10798000A563D6E76FF08800D4E76FF08600D1E7F3
:107990006FF08600704700BF0002C0032DE9F0437E
:1079A0008BB000284FD00E4600294CD01F46002B2C
:1079B00049D003682A49044623F47E1088424BD1FB
:1079C00013F47C1FC3F305480CD0B8F1100F3AD85C
:1079D00090450BD8FFF72CFA054668B128460BB046
:1079E000BDE8F0834FF010089045F3D96FF089059A
:1079F00028460BB0BDE8F08310230193A36B0690DB
:107A00000593636A099008936B46029004F128007D
:107A10000490201D1A4604A907903C3407A800943E
:107A200000F082FE8146FFF70FFA0546B9F1000F1C
:107A30000FD10028D2D121463046424628F028FAFC
:107A4000C7F80080CAE76FF0860528460BB0BDE88E
:107A5000F0836FF09205C1E76FF08505BEE700BFC8
:107A60000002C00330B108B54C22002128F005FA0D
:107A7000002008BD6FF08600704700BFFFF714BA02
:107A800000202DE9F04F4FF00508174605469A46AD
:107A900087B000911860FFF7F1F940B9B7EB050B1B
:107AA00012D1CAF80070002007B0BDE8F08FDAF8F4
:107AB00000301D44AF42CAF80050F4D9B8F10108B3
:107AC000E9D107B0BDE8F08FFFF7B2F90028EED199
:107AD0000646009B0DF10C095C19019500F06CFC49
